:100000000C94F2000C941A010C941A010C941A012D
:100010000C941A010C941A010C941A010C941A01F4
:100020000C941A010C941A010C9491060C94030779
:100030000C941A010C941A010C941A010C941A01D4
:100040000C941A010C941A010C941A010C941A01C4
:100050000C941A010C941A010C941A010C94400986
:100060000C941A010C941A010C941A010C941A01A4
:100070000C941A010C941A010C941A010C941A0194
:100080000C941A010C941A010C941A010C941A0184
:100090000C941A010C941A010C941A010C941A0174
:1000A0000C941A010C941A010C941A01000000001F
:1000B000000000002A2B28000000000000000000C3
:1000C0000000000000000000000000002C9EB4A012
:1000D000A1A2A434A6A7A5AE362D3738271E1F200F
:1000E000212223242526B333B62EB7B89F848586D4
:1000F0008788898A8B8C8D8E8F9091929394959618
:100100009798999A9B9C9D2F3130A3AD3504050695
:100110000708090A0B0C0D0E0F10111213141516F7
:100120001718191A1B1C1DAFB1B0B500080B00023F
:10013000020201000904000001020200000524007F
:100140001001052401010104240206052406000112
:100150000705810310004009040100020A000000A5
:100160000705020240000007058302400000040367
:10017000090441726475696E6F204C4C43004172F2
:100180006475696E6F204C656F6E6172646F0012EA
:1001900001000200000040412336800001010203FB
:1001A0000112010002EF02014041233680000101EB
:1001B00002030105010906A1018502050719E029CD
:1001C000E7150025017501950881029501750881E3
:1001D0000395067508150025650507190029658131
:1001E00000C08A0911241FBECFEFDAE0DEBFCDBF09
:1001F00012E0A0E0B1E0E6E8FBE102C005900D925C
:10020000AE36B107D9F723E0AEE6B2E001C01D92E9
:10021000A531B207E1F710E0C2EFD0E004C02197AA
:10022000FE010E94780BC13FD107C9F70E94E9097E
:100230000C94C10D0C940000FC018091A602811168
:1002400003C08FEF9FEF08959FB7F89482E08093EB
:10025000E9002091F20030E01216130614F421E0B8
:1002600030E02115310559F0289884E68093A502E5
:100270008091F10080838091F200882319F09FBF64
:10028000C90108958BE68093E800F9CFCF93DF93FF
:100290001F92CDB7DEB76983DC01ED91FC9102803E
:1002A000F381E02D41E050E0BE016F5F7F4F099583
:1002B0000F90DF91CF91089583E08093E9008091C2
:1002C000F200882319F08AE38093E8000895CF9321
:1002D000DF931F92CDB7DEB7FC018485958597FD2E
:1002E00005C02FEF3FEF358724870BC0CE01019665
:1002F0000E941C01019719F4898190E002C08FEFE0
:100300009FEF0F90DF91CF9108950F931F93CF939D
:10031000DF931F92CDB7DEB78C01FC0184859585F4
:1003200097FF0EC0CE0101960E941C01019719F49F
:10033000298130E002C02FEF3FEFF8013587248795
:10034000F801848595850F90DF91CF911F910F91D2
:100350000895FC018485958597FD0BC09FB7F8949F
:1003600082E08093E9008091F2009FBF90E00196C7
:1003700008959FB7F89482E08093E9008091F2009D
:100380009FBF90E0089540919F025091A00220915C
:100390009D0230919E0242175307B4F49091E800F9
:1003A0009570E1F39091E80092FD19C08093F100FF
:1003B00080919F029091A00201968F739927892BBB
:1003C00019F48EEF8093E80080919F029091A00233
:1003D00001969093A00280939F0281E0089580E0AF
:1003E0000895CF92DF92EF92FF920F931F93CF93D6
:1003F000DF931F92CDB7DEB7182F062FE42E862F7E
:10040000880F8E5F99830E94C30183E00E94C3011D
:10041000F12EC12E9981D92E8C2D8F19801798F429
:10042000F601E7FE02C0849101C080810E94C301F1
:10043000182F80E00E94C3018123FFEFCF1ADF0A4B
:100440008111EACF01C081E00F90DF91CF911F9120
:100450000F91FF90EF90DF90CF900895DF92EF9291
:10046000FF920F931F93CF93DF93D82E8A017B01C6
:10047000E40EF51EEB01CE15DF0571F0D7FE03C0CB
:10048000FE01849101C088810E94C30121968111DF
:10049000F2CF8FEF9FEF01C0C801DF91CF911F9185
:1004A0000F91FF90EF90DF900895615030F0209110
:1004B000F100FC0120830196F8CF289884E6809310
:1004C000A5020895CF92DF92EF92FF920F931F93B0
:1004D000CF93DF936C017A018B01C0E0D0E0CE15A1
:1004E000DF0589F0D8016D918D01D601ED91FC9168
:1004F0000190F081E02DC6010995892B11F47E0150
:1005000002C02196ECCFC701DF91CF911F910F91CF
:10051000FF90EF90DF90CF90089580919402811129
:100520000DC082E08093900284E08093910210924B
:1005300093021092920281E08093940280E992E00B
:1005400008950F931F93CF93DF931F92CDB7DEB71C
:1005500082E0898342E450E06CE271E080E80E942E
:100560002E020E948D02DC0112960D911C911397B0
:100570000115110569F0D801ED91FC910280F3811C
:10058000E02DBE016F5F7F4FC801099597FF07C03F
:1005900089810F90DF91CF911F910F910895F801FC
:1005A00000851185E5CF3FB7F89480918C0290913A
:1005B0008D02A0918E02B0918F0226B5A89B05C036
:1005C0002F3F19F00196A11DB11D3FBFBA2FA92FD2
:1005D000982F8827820F911DA11DB11DBC01CD014F
:1005E00042E0660F771F881F991F4A95D1F708953B
:1005F0008F929F92AF92BF92CF92DF92EF92FF9233
:100600006B017C010E94D3024B015C01C114D10437
:10061000E104F104F1F00E94D302DC01CB0188195E
:100620009909AA09BB09883E9340A105B10570F359
:1006300021E0C21AD108E108F10888EE880E83E0B3
:10064000981EA11CB11CC114D104E104F10419F7D6
:10065000DDCFFF90EF90DF90CF90BF90AF909F9055
:100660008F9008958F929F92AF92BF92CF92DF9218
:10067000EF92FF920F931F93CF93DF9300D01F92BF
:10068000CDB7DEB7382F8B018091A602811103C050
:100690008FEF9FEF7DC08091A30280FF05C0809106
:1006A000E00082608093E0004A018AEFF82E832FF9
:1006B0008770E82E9FE3C92E832F8072B82E2AE31D
:1006C000D22E832F8074A82E8114910409F457C070
:1006D0008FB7F894E092E9009091E80095FF05C08B
:1006E0009091F2002C2D291B01C020E08FBF211119
:1006F00010C0FA94FF2061F261E070E080E090E0C9
:1007000039834A835B830E94F80239814A815B8185
:10071000DBCF822F90E0881699060CF4282D6FB756
:10072000F894E092E9008091E80085FF26C0822FCE
:1007300090E0881A990ABB2029F02150A8F0109265
:10074000F100FBCFF80137FF07C0215058F074913A
:100750007093F1003196F9CF215020F07191709390
:10076000F100FACF080F191F8091E80085FF0DC036
:100770008114910411F4A11008C06FBFA5CF5D983A
:1007800084E68093A102CA0103C0D092E800F5CFAD
:100790000F900F900F90DF91CF911F910F91FF90CD
:1007A000EF90DF90CF90BF90AF909F908F90089583
:1007B000CF92DF92EF92FF920F931F93CF93DF932D
:1007C0001F92CDB7DEB77C016B0182E0898341E0E7
:1007D00050E0BE016F5F7F4FF70183810E943203BB
:1007E0008C0197FD0CC0F701838148E050E0B60111
:1007F00080640E94320397FD02C0800F911F0F900A
:10080000DF91CF911F910F91FF90EF90DF90CF90EC
:100810000895CF93DF93EC0180911201882331F08A
:1008200083E00E9432031816190634F081E090E04C
:100830009B838A8380E090E0DF91CF910895DC0173
:10084000FB0112968C91129790E0248135818217DA
:100850009307D1F491818081813A31F481E0913024
:1008600091F0933089F411C0813271F49B3021F4FE
:1008700082811F968C9305C09A3031F48281509604
:100880008C9381E00895089580E00895DC01FB01D8
:1008900088E4808389E4818384E482831D969C912B
:1008A0001D979F709F5B93831D968D919C911E97C2
:1008B00024E0969587952A95E1F78F708F5B848366
:1008C00085E00895EF92FF920F931F93CF93DF93EC
:1008D000FB012081213851F52381223239F5DC01D9
:1008E00012962C9130E04481558142175307F1F460
:1008F000EC010B851C85E12CF12C0115110591F003
:10090000F801448155816281738180E80E942E0242
:100910008F3FFFEF9F0769F0E80EF91ED8010D9198
:100920001C91EBCF81E08F87C70105C080E090E08C
:1009300002C08FEF9FEFDF91CF911F910F91FF903A
:10094000EF900895CF93DF93CDB7DEB769970FB6D9
:10095000F894DEBF0FBECDBFFC01DB018C918F5F31
:100960008C93BE016F5F7F4F89E1DB011D928A95F9
:10097000E9F729E0298384E08A8391E09D8383E07D
:100980008E832A8721E22B879C879D879F8722E27F
:10099000288B27E02B8B25E02C8B8E8B20E430E0FE
:1009A000388F2F8B998F82818B8395858685998B44
:1009B0008A8B838180688D8B49E150E080E00E94C2
:1009C0002E0269960FB6F894DEBF0FBECDBFDF9141
:1009D000CF910895CF93DF9380917F0281116BC0F7
:1009E00081E0809372028093730228E732E03093B3
:1009F00075022093740210927702109276022DE114
:100A000031E030936F0220936E0210927A021092BE
:100A1000790210927C0210927B0280937D02809377
:100A20007E0281EC809378020E948D02FC0121817C
:100A30008091720290E0820F911D089724F081E06E
:100A400080937F0238C0A281B381109729F48EE68B
:100A500092E0938382830EC018968D919C91199792
:100A6000009711F0DC01F8CF8EE692E019969C9386
:100A70008E93189780818093700281818093710298
:100A8000908180917302890F808380E0909172023F
:100A90008917A8F69181A92FB0E0A050BF4FC0914F
:100AA0007402D0917502C80FD11D28812C939F5FCD
:100AB00091838F5FEBCF8EE692E0DF91CF91089527
:100AC000FC0182818F5BFB01808381E00895EF92BE
:100AD000FF921F93CF93DF93EC01162F683818F025
:100AE000E8E7E60F23C0E62FF0E067FF0DC0E0580F
:100AF000F10981E090E001C0880FEA95EAF79C8156
:100B0000892B8C83E0E012C0E455FF4FE491E111A2
:100B100007C081E090E09B838A83E12CF12C3FC0E9
:100B2000E7FF04C08C8182608C83EF778E818E1703
:100B300039F18F818E1721F188858E1709F189850A
:100B40008E17F1F08A858E17D9F08B858E17C1F03C
:100B5000DE01169680E090E02D91211106C0DE01A5
:100B6000A80FB91F1696EC930BC00196863091051D
:100B700099F781E090E09B838A83E12CF12C0AC0F5
:100B80000E94EA04BE016C5F7F4F0E94D803EE24EE
:100B9000E394F12C183818F0E8E7E10F1DC0E12FBD
:100BA000F0E017FF0EC0E058F10921E030E001C08D
:100BB000220FEA95EAF720958C8128232C83E0E028
:100BC0000BC0E455FF4FE491EE23D1F0E7FF04C0E2
:100BD0008C818D7F8C83EF77DE01169686E0EE2385
:100BE00021F09C919E1301C01C928150119681119D
:100BF000F6CF0E94EA04BE016C5F7F4F0E94D803CB
:100C0000C701DF91CF911F91FF90EF90089500975A
:100C100069F0FC0101900020E9F73197AF01481B12
:100C2000590BBC0185E093E00C94620280E090E0F7
:100C300008950E94750DEF92FF920F931F93CF932B
:100C4000DF93EC017B018A0188819981009729F06B
:100C50002A813B8124173507F8F4B8016F5F7F4F75
:100C60000E94AB0C009759F0998388831B830A83F9
:100C70002C813D81232B81F4FC0110820DC08881E1
:100C80009981009711F00E94130C198218821D821D
:100C90001C821B821A8207C01D830C83B7018881C6
:100CA00099810E94830DCE01DF91CF911F910F9109
:100CB000FF90EF900895CF93DF93EC0161157105DC
:100CC00059F0FB0101900020E9F73197AF01461B75
:100CD000570B0E941B060CC088819981009711F068
:100CE0000E94130C198218821D821C821B821A8298
:100CF000CE01DF91CF910895FC0111821082138201
:100D00001282158214826115710551F0FB01019068
:100D10000020E9F73197AF01461B570B0C941B06D7
:100D200008951F920F920FB60F9211248F939F93E5
:100D30008091E1009091E100937F9093E10083FF27
:100D40000FC01092E90091E09093EB001092EC003C
:100D500092E39093ED001092A60298E09093F00039
:100D600082FF20C093E09093E9009091F2009923D4
:100D700019F09AE39093E8009091A102992339F039
:100D80009091A10291509093A102992389F19091A1
:100D9000A502992339F09091A50291509093A50254
:100DA000992341F184FF10C08091E2008E7E816022
:100DB0008093E2008091E1008F7E8093E10080913A
:100DC000A3028E7E806111C080FF16C08091E20078
:100DD0008E7E80618093E2008091E1008E7E809320
:100DE000E1008091A3028E7E81608093A30204C003
:100DF0005D9ACDCF289AD6CF9F918F910F900FBE3D
:100E00000F901F9018951F920F920FB60F921124FA
:100E1000CF92DF92EF92FF920F931F932F933F9306
:100E20004F935F936F937F938F939F93AF93BF93F2
:100E3000EF93FF93CF93DF93CDB7DEB76C97DEBF11
:100E4000CDBF1092E9008091E80083FFFAC168E00D
:100E5000CE0145960E94550282EF8093E8008D896D
:100E600087FF05C09091E80090FFFCCF03C09EEF84
:100E70009093E800982F907609F0C6C09E892F893C
:100E8000188D91110CC0803829F48091A4028093B0
:100E9000F10002C01092F1001092F10047C1422F00
:100EA00050E0512B913051F4811140C14130510536
:100EB00009F03CC18091A4028D7F0BC0933061F496
:100EC000811134C14130510509F030C18091A40233
:100ED00082608093A4022AC1953041F48091E80099
:100EE00080FFFCCF20682093E30020C1963009F0FA
:100EF0005FC0EB8CFC8C1092E9001092A002109263
:100F00009F02123091F510929E0210929D020E9453
:100F1000A10299E0BE016F5F7F4FDB01E92F1D92B7
:100F2000EA95E9F799831A8391E09E8390EA98877E
:100F30009AEF998720919F023091A002275F3F4F3F
:100F40003C832B838D831092E9001092A0021092B3
:100F50009F02F0929E02E0929D0249E050E080E004
:100F60000E942E020E94A102E1C0F0929E02E09235
:100F70009D020E948D02DC011296ED90FC90139769
:100F8000E114F10409F4C0C0D701ED91FC91048093
:100F9000F581E02DBE016B5E7F4FC701099500977B
:100FA00019F00CF0C3C0C6C0F701E084F184E8CFAB
:100FB000973009F4BFC0983021F481E08093F100AC
:100FC000B5C0993009F0B2C0837009F0B3C0E1E058
:100FD000F1E081E021E036E39081992361F0809394
:100FE000E9002093EB0091919093EC003093ED0099
:100FF0008F5F873089F78EE78093EA001092EA00CE
:101000008F898093A60292C08B8D9C8D1092E900EF
:101010001092A00210929F0290939E0280939D02D4
:10102000898D811156C08E899D89913A59F48132FA
:1010300009F080C047E050E06BE071E080E00E9482
:101040002E0274C0913209F075C0833289F4888D04
:1010500090E0982F88272F89822BA0E0B0E0809322
:10106000070190930801A0930901B0930A015EC0A3
:10107000803269F48091E80082FFFCCF67E08BE06A
:1010800091E00E9455028BEF8093E80006C0823207
:1010900009F04CC08F89809312018091A2028823AD
:1010A00019F0EEEFFAE002C0E0E0F8E080910B0109
:1010B00090910C01A0910D01B0910E01803B9440E4
:1010C000A105B10509F088C08091120180FFA0C080
:1010D00083C00E948D02DC0112960D911C91139722
:1010E0000115110539F1D801ED91FC910190F081C4
:1010F000E02DBE016B5E7F4FC8010995811116C0BE
:10110000F80100851185ECCF1130C1F0133091F456
:101110008F89882309F455C08230E9F440E860E102
:101120008EE791E00E94F101882321F08EEF8093F9
:10113000E80087C081E28093EB0083C08B8D9C8D9B
:10114000089711F410939C0280919C02811136C083
:101150006FE871E038C0813029F440E86BE082E745
:1011600091E0E0CF833031F70E948D02DC011296CE
:10117000ED90FC9013978E010F5F1F4F6801E114F3
:10118000F10479F0D701ED91FC910680F781E02D13
:10119000B801C7010995080F111DF701E084F1841A
:1011A000EECFD8011C92F60101900020E9F73197AB
:1011B000BF016C197D0940E0C601B4CF61EA71E05E
:1011C00002C06EE671E06115710509F4B3CFFB0151
:1011D000449150E080E833CF0FB6F894A895809101
:1011E0006000886180936000109260000FBEA89537
:1011F000EE3F2AE0F20739F08091FE0A9091FF0A53
:101200009183808393CF1092FF0A1092FE0A8ECFB3
:10121000EE3F8AE0F80731F0808191819093FF0AD8
:101220008093FE0A87E797E7918380839BE088E1BC
:101230000FB6F894A895809360000FBE909360005D
:1012400075CF6C960FB6F894DEBF0FBECDBFDF91A1
:10125000CF91FF91EF91BF91AF919F918F917F912E
:101260006F915F914F913F912F911F910F91FF903F
:10127000EF90DF90CF900F900FBE0F901F901895BA
:101280001F920F920FB60F9211242F933F938F93BB
:101290009F93AF93BF938091880290918902A09110
:1012A0008A02B0918B023091870223E0230F2D3701
:1012B00020F40196A11DB11D05C026E8230F02965A
:1012C000A11DB11D2093870280938802909389020B
:1012D000A0938A02B0938B0280918C0290918D0230
:1012E000A0918E02B0918F020196A11DB11D809335
:1012F0008C0290938D02A0938E02B0938F02BF91C7
:10130000AF919F918F913F912F910F900FBE0F90B2
:101310001F9018951092AA021092A90288EE93E0ED
:10132000A0E0B0E08093AB029093AC02A093AD023A
:10133000B093AE0289E291E09093A8028093A70255
:101340008FEF9FEF9093B4028093B3021092080343
:101350001092070389E391E09093060380930503BD
:101360008091FD02811113C01092F8021092F702D1
:1013700083EB91E09093FA028093F9028FE290E080
:101380009093FC028093FB0281E08093FD020E9417
:10139000EA04FC01A385B485109729F487EF92E055
:1013A000948783870BC08D919C911197009711F0C2
:1013B000DC01F9CF87EF92E08D939C9325853685EC
:1013C0008091FB029091FC02820F931F9687858784
:1013D0000895CF93DF93CDB7DEB762970FB6F89439
:1013E000DEBF0FBECDBF789484B5826084BD84B566
:1013F000816084BD85B5826085BD85B5816085BD10
:1014000080916E00816080936E00109281008091C7
:10141000810082608093810080918100816080934F
:101420008100809180008160809380008091910094
:1014300082608093910080919100816080939100FF
:10144000809190008160809390008091C1008460C1
:101450008093C1008091C10082608093C10080911F
:10146000C10081608093C1008091C300816080933E
:10147000C3008091C00082608093C0008091C20050
:1014800081608093C20080917A00846080937A00AA
:1014900080917A00826080937A0080917A008160E6
:1014A00080937A0080917A00806880937A0010920D
:1014B000A6021092A4021092A3028091D70081602C
:1014C0008093D70080EA8093D80089B5806189BD78
:1014D00089B5826089BD09B400FEFDCF61E070E08E
:1014E00080E090E00E94F8028091D8008F7C8061BB
:1014F0008093D8008091E000807F8093E00080910D
:10150000E1008E7E8093E1008DE08093E200559AA9
:10151000209AEEEFFFE7859194918B3F9C4D19F453
:1015200081E08093A20200E010E06DE371E0CE0163
:101530000D960E947C0668E471E0CE010D960E9433
:101540005B0668E57BE180E090E00E94F80263E5DD
:1015500071E0CE010D960E945B066EE571E0CE0152
:101560000D960E945B0669E671E0CE0107960E9427
:101570007C066EE671E0CE0101960E947C068981B0
:101580009A810E94130C8F8198850E94130C89E721
:1015900091E00E9407066DE771E0CE010D960E9472
:1015A0005B0668E871E0CE010D960E945B068CE652
:1015B00091E00E94070663E971E0CE010D960E945A
:1015C0005B066EE971E0CE010D960E945B0689EA2A
:1015D00091E00E94070684EB91E00E9407066FEB02
:1015E00071E0CE0101960E947C064D815E81698189
:1015F0007A8185E093E00E94620289819A810E944B
:10160000130C67EC71E0CE0107960E947C0662ED38
:1016100071E0CE010D960E945B066DED71E0CE018A
:101620000D960E945B0668EE71E0CE010D960E9459
:101630005B0663EF71E0CE010D960E945B068EEFB4
:1016400091E00E94070660E072E0CE010D960E94D4
:101650005B066BE072E0CE010D960E945B0666E1D0
:1016600072E0CE0101960E947C0661E272E0CE013A
:101670000D960E945B066CE272E0CE010D960E9410
:101680005B0660E47CE980E090E00E94F80267E39A
:1016900072E0CE010D960E945B0662E472E0CE011C
:1016A0000D960E945B066DE472E0CE0101960E94E9
:1016B0005B0668E572E0CE010D960E945B0663E66C
:1016C00072E0CE010D960E945B0689819A810E948C
:1016D000130C8F8198850E94130C8D859E850E9426
:1016E000130C0115110509F420CF0E9400001DCF35
:1016F000EE0FFF1F0590F491E02D0994CF93DF9337
:101700008230910510F482E090E0E0911303F091B3
:10171000140320E030E0C0E0D0E0309711F14081C8
:10172000518148175907C0F04817590761F4828161
:101730009381209719F09B838A832BC09093140385
:101740008093130326C02115310519F04217530762
:1017500018F49A01BE01DF01EF010280F381E02D50
:10176000DCCF2115310509F1281B390B2430310557
:1017700090F412968D919C9113976115710521F04B
:10178000FB019383828304C090931403809313031B
:10179000FD01329644C0FD01E20FF31F8193919346
:1017A000225031092D933C933AC02091110330917E
:1017B0001203232B41F4209115013091160130932F
:1017C000120320931103209113013091140121156C
:1017D000310541F42DB73EB74091170150911801E2
:1017E000241B350BE0911103F0911203E217F3076C
:1017F000A0F42E1B3F0B2817390778F0AC014E5F81
:101800005F4F2417350748F04E0F5F1F50931203A8
:10181000409311038193919302C0E0E0F0E0CF0187
:10182000DF91CF9108950F931F93CF93DF9300978C
:1018300009F48CC0FC0132971382128200911303C9
:10184000109114030115110581F420813181820F5B
:10185000931F20911103309112032817390779F54E
:10186000F0931203E093110371C0D80140E050E0FF
:10187000AE17BF0750F412962D913C911397AD010E
:101880002115310509F1D901F3CF9D01DA01338327
:10189000228360817181860F971F8217930769F4F5
:1018A000EC0128813981260F371F2E5F3F4F31838E
:1018B00020838A819B8193838283452B29F4F09333
:1018C0001403E093130342C01396FC93EE93129714
:1018D000ED01499159919E01240F351FE217F3073D
:1018E00071F480819181840F951F029611969C93CB
:1018F0008E938281938113969C938E931297E0E04E
:10190000F0E0D80112968D919C911397009719F0F1
:10191000F8018C01F6CF8D919C9198012E5F3F4F7D
:10192000820F931F2091110330911203281739075A
:1019300069F4309729F4109214031092130302C033
:10194000138212821093120300931103DF91CF913F
:101950001F910F910895A0E0B0E0E1EBFCE00C9442
:101960008E0DEC01009721F4CB010E947E0BB8C0D4
:10197000FC01E60FF71F9C0122503109E217F30723
:1019800008F4ACC0D9010D911C91119706171707E7
:10199000B0F00530110508F49FC0C8010497861700
:1019A000970708F499C002501109061B170B019301
:1019B00011936D937C93CF010E94130C8DC05B013A
:1019C000A01AB10A4C01800E911EA0911303B09190
:1019D000140340E050E0E12CF12C109709F44AC0C8
:1019E000A815B905D1F56D907C901197630182E03F
:1019F000C80ED11CCA14DB0480F1A3014A195B098B
:101A00006A0182E0C80ED11C1296BC901297139600
:101A1000AC91B5E0CB16D10440F0B282A3835183E0
:101A20004083D9016D937C930AC00E5F1F4FC301A1
:101A3000800F911FF90191838083EB2DFA2FE11420
:101A4000F10431F0D7011396FC93EE93129744C042
:101A5000F0931403E09313033FC08D919C91119771
:101A60004817590708F4AC017D0112960D90BC91FE
:101A7000A02DB3CF80911103909112038815990581
:101A8000E1F446175707C8F48091130190911401AF
:101A9000009741F48DB79EB74091170150911801FE
:101AA000841B950BE817F907C8F4F0931203E09331
:101AB0001103F901718360830FC0CB010E947E0B7B
:101AC0007C01009759F0A801BE010E947A0DCE0159
:101AD0000E94130CC70104C0CE0102C080E090E058
:101AE000CDB7DEB7EEE00C94AA0D81E090E0F8945B
:101AF0000C94C10DFB01DC0102C001900D9241501C
:101B00005040D8F70895FB01DC0101900D920020B0
:101B1000E1F708952F923F924F925F926F927F92DA
:101B20008F929F92AF92BF92CF92DF92EF92FF92ED
:101B30000F931F93CF93DF93CDB7DEB7CA1BDB0B99
:101B40000FB6F894DEBF0FBECDBF09942A8839883E
:101B500048885F846E847D848C849B84AA84B98445
:101B6000C884DF80EE80FD800C811B81AA81B98151
:101B7000CE0FD11D0FB6F894DEBF0FBECDBFED0165
:061B80000895F894FFCF68
:101B860000C18081000000FFFFFFFF00E1000000B0
:101B9600000000000015038000000000001F04A2E2
:101BA60004620446040000000046010904A9016716
:101BB6000185015C01000000006705620268357559
:101BC6006D766F61696E78006D3267756E65623429
:101BD600666700366869386C7A6F653762006473C9
:101BE6003530386F3173753400454B4F7B0068359F
:101BF60075326F3461696E7800454B4F006F6974BA
:101C06007164786470356F0072376D6168777478C7
:101C16003431006B79617071326F347377006E64A2
:101C260072627536336E726C0078766672747A619B
:101C36006E6630003169726E6461397432650068AF
:101C460035756D766F6100386774776936716639F8
:101C56006D006A39343973747A306338006E64788B
:101C66006E6C6135316537006A3073693367717A36
:101C76006565007A66307A686F7A303578007D005F
:101C86007776616639373578327700353778316D52
:101C96006C78667775006A63376C37346D653339EF
:101CA6000068676A3064797433676800326E386733
:101CB600676538776D630073637679366D74686926
:101CC600670073353935746A343370750070376858
:101CD60031696469776F6F007A6E39323132756DAA
:0E1CE6006E780067316A6539686B6D7866004C
:2070000055C000006EC000006CC000006AC0000068C0000066C0000064C0000062C0000043
:2070200060C000005EC00000F2C400005AC0000058C0000056C0000054C0000052C00000EE
:2070400050C0000078C000004CC000004AC0000048C0000046C0000044C0000042C00000BE
:2070600040C000003EC000003CC000003AC0000038C0000036C0000034C0000032C0000048
:2070800030C000002EC000002CC000002AC0000028C0000026C0000024C0000022C00000A8
:2070A00020C000001EC000001CC0000011241FBECFEFDAE0DEBFCDBF11E0A0E0B1E0E2E3BC
:2070C000FFE702C005900D92A83AB107D9F711E0A8EAB1E001C01D92AE3BB107E1F78FD30B
:2070E00026C78ECFF89410926F0010928100109285001092840081E085BF15BE47985D9AEB
:20710000289A0C94000008952091B2013091B3012F5F3F4F3093B3012093B201932F37FFA6
:2071200003C08EEF831B982F990F921710F447980895479A08951F920F920FB60F9211246E
:207140002F938F939F93EF93FF9310928500109284008091A8019091A901009741F00197D3
:207160009093A9018093A801892B09F45D9A8091AA019091AB01009741F001979093AB0126
:207180008093AA01892B09F4289AE0E0F0E0859194918F5F9F4F49F08091AC019091AD0151
:2071A00001969093AD018093AC01FF91EF919F918F912F910F900FBE0F901F90189584E0BC
:2071C0008093E9000DC08091E8008B778093E80003C08EB3882351F08091E80082FFF9CFBE
:2071E0008091E80085FFEFCF8091F1000895982F83E08093E9008091E80085FD0DC0809136
:20720000E8008E778093E80003C08EB3882369F08091E80080FFF9CF9093F1005D9884E6CB
:2072200090E09093A9018093A80108954F925F926F927F928F929F92AF92BF92CF92DF921E
:20724000EF92FF920F931F93CF93DF9384E08093E9008091E80082FF57C2289884E690E067
:207260009093AB018093AA01AADF182F853481F48CE49DE19093AD018093AC0107B600FC4B
:20728000FDCFF999FECF81E180935700E89503C0843519F494DF8DE00DC28C34E1F38035F9
:2072A000D1F3843721F484E4A2DF80E003C2813611F489E5FFC18134B1F481DF182F7FDFE3
:2072C00090E0880F991FAA2797FDA095BA2F312F330F20E0442737FD4095542F822B932B68
:2072E000A42BB52BB8C1803711F483E5E3C1833549F4C0E0D1E089917ADF21E0C730D20714
:20730000D1F7D9C1863521F481E371DF80E3D2C1833731F487E86BDF85E969DF8EE1CAC149
:207320008536B9F4E0E0F0E093E085E090935700E89507B600FCFDCF80935700E89507B65D
:2073400000FCFDCFE058FF4FA0E7E030FA0771F7A2CF823739F4E1E0F0E089E08093570024
:207360008491A8C1863439F4E0E0F0E089E08093570084919FC18E3439F4E3E0F0E089E0E5
:2073800080935700849196C1813539F4E2E0F0E089E08093570084918DC1823631F489E521
:2073A00026DF80E024DF80E885C1823419F0873609F0E5C01092AD011092AC0100DF082FE8
:2073C000FEDEF82EFCDE682E8554823008F071C1902F80E0CF2DD0E0C82BD92B10926F00B3
:2073E000173609F04BC081E180935700E895DD24CC24C3943FC0E090AE01F090AF010091CC
:20740000B0011091B101B6E46B16D9F4ED2DF0E0EE29FF29E4918E2FEADEDD2081F082E08D
:2074200090E0A0E0B0E0E80EF91E0A1F1B1FE092AE01F092AF010093B0011093B101DC2470
:2074400018C0D801C701B695A7959795879559D5CEDE82E090E0A0E0B0E0E80EF91E0A1FF2
:207460001B1FE092AE01F092AF010093B0011093B1012197209709F0BECF7DC08090AE01F5
:207480009090AF01A090B001B090B10196E4691609F05DC083E0F40180935700E89507B63E
:2074A00000FCFDCF54C0F6E46F1661F5772031F1E090AE01F090AF010091B0011091B1019E
:2074C0007EDED82ECC24852D90E08C299D29F7010C0140925700E895112482E090E0A0E08B
:2074E000B0E0E80EF91E0A1F1B1FE092AE01F092AF010093B0011093B10102C060DE582E1A
:20750000742423C0E090AE01F090AF010091B0011091B10116950795F794E79450DE682FFA
:20752000C701F7D48091AE019091AF01A091B001B091B1010296A11DB11D8093AE01909349
:20754000AF01A093B001B093B101219704C05524772444244394209709F0A5CF96E46916B6
:2075600041F485E0F40180935700E89507B600FCFDCF8DE03CDE82E080936F009CC0833492
:2075800071F40091AE011091AF0119DE90E021E0F8010C0120935700E89511247CCE8336C8
:2075A00019F5E090AE01F090AF010091B0011091B10105DEF701E16090E021E00C0120938C
:2075C0005700E895112482E090E0A0E0B0E0E80EF91E0A1F1B1FE092AE01F092AF0100936A
:2075E000B0011093B10157CE8D3661F4E091AE01F091AF0185E080935700E89507B600FCF2
:20760000FDCF49CE823551F4E091AE01F091AF0105911491812FEBDD802F4CC0843421F5FE
:20762000E090AE01F090AF010091B0011091B10116950795F794E794C2DD682FC70169D4DE
:207640008091AE019091AF01A091B001B091B1010296A11DB11D8093AE019093AF01A093D8
:20766000B001B093B10117CE843609F5E090AE01F090AF010091B0011091B101D801C70142
:20768000B695A795979587953CD4B1DD82E090E0A0E0B0E0E80EF91E0A1F1B1FE092AE010A
:2076A000F092AF010093B0011093B10104C08B3111F08FE39CDD83E08093E9009091E8002B
:2076C0008091E8008E778093E80095FF04C010C08EB38823C9F08091E80080FFF9CF809193
:2076E000E8008E778093E80003C08EB3882361F08091E80080FFF9CF84E08093E9008091F1
:20770000E8008B778093E800DF91CF911F910F91FF90EF90DF90CF90BF90AF909F908F90AC
:207720007F906F905F904F9008959091B601892F8F77813249F58091B7018032A1F081328A
:2077400019F5913A09F58091E800877F8093E8008DE091E067E070E00BD28091E8008B770B
:207760008093E8000895913279F48091E800877F8093E8008DE091E067E070E05DD2809192
:20778000E8008E778093E800089582E061EC42E0B5D083E061E842E1B1D084E060E842E1EF
:2077A000ADC084B7877F84BF88E10FB6F89480936000109260000FBE20E880E090E00FB63F
:2077C000F89420936100809361000FBE81E085BF92E095BF3F9A209A559AE1E6F0E02083A1
:2077E000108247985D9A289A109289008AEF8093880090936F0083E080938100F0C0409116
:20780000000850910108109201081092000894B714BE88E10FB6F8948093600010926000D5
:207820000FBE292F30E0F901E270F07091FD18C090FF05C0859194918F5F9F4F81F423FFFF
:207840000FC08091090190910A014817590741F0E0E0F0E0859194918F5F9F4F09F042DC64
:20786000A0DF78941092AD011092AC010CC0DEDC36D38091AC019091AD0181549F4110F00D
:207880001092140141DC80911401882381F78091E00081608093E00025DC80E090E0089598
:2078A000FA01923049F0933061F09130F9F485E191E022E130E01EC087E291E02EE330E04D
:2078C00019C0882329F485E691E024E030E012C0813029F489E691E022E230E00BC0823006
:2078E00029F48DE891E028E130E004C080E090E020E030E091838083C90108958093E9004E
:207900008091EB0081608093EB001092ED006093EC004093ED008091EE00881F8827881F62
:2079200008958091B60188238CF403C08EB38823B1F08091E80082FFF9CF8091E8008B772A
:207940008093E80008958EB3882349F08091E80080FFF9CF8091E8008E778093E800089594
:20796000EF92FF920F931F9345D04CD008ED10E0F80180818F77808380818068808380819B
:207980008F7D808319BC1EBA1092B40180EEE82EF12CF70180818B7F8083F8018081816052
:2079A000808380E060E042E0A9DFE1EEF0E080818E7F8083E2EEF0E0808181608083808144
:2079C00088608083F70180818E7F8083F8018081806180831F910F91FF90EF900895E7ED06
:2079E000F0E08081816080838AE482BF81E08093B501B6CFE8EDF0E080818E7F808310921C
:207A0000E20008951092DA001092E10008951F920F920FB60F9211242F933F934F935F93F6
:207A20006F937F938F939F93AF93BF93EF93FF938091DA0080FF1BC08091D80080FF17C0B2
:207A40008091DA008E7F8093DA008091D90080FF0BC080E189BD82E189BD09B400FEFDCF36
:207A600081E08EBB3BD203C019BC1EBA37D28091E10080FF17C08091E20080FF13C0809138
:207A8000E2008E7F8093E2008091E20080618093E2008091D80080628093D80019BC85E049
:207AA0008EBB1CD28091E10084FF2CC08091E20084FF28C080E189BD82E189BD09B400FEC5
:207AC000FDCF8091D8008F7D8093D8008091E1008F7E8093E1008091E2008F7E8093E20012
:207AE0008091E20081608093E2008091B401882331F48091E30087FD02C081E001C084E067
:207B00008EBBECD18091E10083FF21C08091E20083FF1DC08091E100877F8093E10082E06A
:207B20008EBB1092B4018091E1008E7F8093E1008091E2008E7F8093E2008091E2008061E9
:207B40008093E20080E060E042E0D8DEC7D1FF91EF91BF91AF919F918F917F916F915F9130
:207B60004F913F912F910F900FBE0F901F9018959C014091BC015091BD014617570718F49D
:207B8000F90190E044C06115710511F0AB01F8CF8091E8008E778093E80040E050E0F0CF0F
:207BA0008EB3882309F444C0853009F443C08091E80083FF02C081E008958091E80082FD70
:207BC00031C08091E80080FF22C08091F3009091F200782F60E0292F30E0262B372B07C07A
:207BE00081918093F100415050402F5F3F4F4115510519F02830310598F390E02830310566
:207C000009F491E08091E8008E778093E8004115510531F6992321F605C08EB3882341F075
:207C2000853041F08091E80082FFF7CF80E0089582E0089583E008959C016115710529F47C
:207C40008091E8008B778093E800F90126C08EB3882391F1853091F18091E80083FF02C06C
:207C600081E008958091E80082FFF1CF06C08091F10081936150704059F02091F300809191
:207C8000F200322F20E090E0822B932B892B79F78091E8008B778093E80061157105B9F601
:207CA00005C08EB3882341F0853041F08091E80080FFF7CF80E0089582E0089583E00895C2
:207CC0000F931F93DF93CF9300D0CDB7DEB7E6EBF1E08091F100819381E0EE3BF807C9F792
:207CE00024DD8091E80083FFE4C08091B6019091B701953009F46DC0963040F4913081F1A7
:207D0000913070F0933009F0D4C02AC0983009F4A3C0993009F4B2C0963009F0CAC07CC023
:207D2000803809F4C6C0823809F0C3C08091BA0187708093E9008091EB001092E9002091DB
:207D4000E800277F2093E80090E025E0969587952A95E1F781708093F1001092F10087C0D8
:207D6000882319F0823009F0A4C08F71823009F0A0C08091B801882331F52091BA01277097
:207D800009F497C02093E9008091EB0080FF1BC0933021F48091EB00806213C08091EB0018
:207DA00080618093EB0081E090E002C0880F991F2A95E2F78093EA001092EA008091EB00E5
:207DC00088608093EB001092E9008091E800877F51C0882309F06DC01091B8011F770FB79B
:207DE000F8948091E800877F8093E8009ADD8091E80080FFFCCF8091E3008078812B809398
:207E0000E30080688093E300112311F482E001C083E08EBB0FBF4DC08058823008F049C033
:207E20008091B8019091B9016091BA01AE014F5F5F4F36DDBC01009709F43BC08091E8008E
:207E4000877F8093E80089819A8192DE8091E8008B778093E8002DC0803859F58091E800AA
:207E6000877F8093E8008091B4018093F1008091E8008E778093E80054DD1BC08823C9F4CA
:207E80009091B8019230A8F48091E800877F8093E8009093B40145DD8091B401882331F420
:207EA0008091E30087FD02C081E001C084E08EBB6CDC8091E80083FF0AC08091EB0080624E
:207EC0008093EB008091E800877F8093E8000F900F90CF91DF911F910F91089508951F9360
:207EE0008EB3882361F01091E9001092E9008091E80083FF01C0E4DE17701093E9001F916F
:207F00000895F999FECF92BD81BDF89A992780B50895262FF999FECF1FBA92BD81BD20BDBD
:207F20000FB6F894FA9AF99A0FBE01960895F894FFCF4341544552494E4100777700080031
:207F40000000000000080112011001020000084123360001000201000109023E00020100FF
:207F600080320904000001020201000524001001042402040524060001070582030800FF0C
:207F800009040100020A000000070504021000010705830210000104030904220341007216
:207FA000006400750069006E006F0020004C0065006F006E006100720064006F0000001836
:1A7FC00003410072006400750069006E006F0020004C004C004300000000D7
:00000001FF
